{
    "_format": "hh-sol-artifact-1",
    "contractName": "NFTMarketplace",
    "sourceName": "contracts/NFTMarketplace.sol",
    "abi": [
        {
            "inputs": [],
            "stateMutability": "nonpayable",
            "type": "constructor"
        },
        {
            "anonymous": false,
            "inputs": [
                {
                    "indexed": true,
                    "internalType": "address",
                    "name": "owner",
                    "type": "address"
                },
                {
                    "indexed": true,
                    "internalType": "address",
                    "name": "approved",
                    "type": "address"
                },
                {
                    "indexed": true,
                    "internalType": "uint256",
                    "name": "tokenId",
                    "type": "uint256"
                }
            ],
            "name": "Approval",
            "type": "event"
        },
        {
            "anonymous": false,
            "inputs": [
                {
                    "indexed": true,
                    "internalType": "address",
                    "name": "owner",
                    "type": "address"
                },
                {
                    "indexed": true,
                    "internalType": "address",
                    "name": "operator",
                    "type": "address"
                },
                {
                    "indexed": false,
                    "internalType": "bool",
                    "name": "approved",
                    "type": "bool"
                }
            ],
            "name": "ApprovalForAll",
            "type": "event"
        },
        {
            "anonymous": false,
            "inputs": [
                {
                    "indexed": false,
                    "internalType": "address",
                    "name": "sender",
                    "type": "address"
                },
                {
                    "indexed": false,
                    "internalType": "uint256",
                    "name": "tokenId",
                    "type": "uint256"
                }
            ],
            "name": "NFTMinted",
            "type": "event"
        },
        {
            "anonymous": false,
            "inputs": [
                {
                    "indexed": true,
                    "internalType": "address",
                    "name": "from",
                    "type": "address"
                },
                {
                    "indexed": true,
                    "internalType": "address",
                    "name": "to",
                    "type": "address"
                },
                {
                    "indexed": true,
                    "internalType": "uint256",
                    "name": "tokenId",
                    "type": "uint256"
                }
            ],
            "name": "Transfer",
            "type": "event"
        },
        {
            "inputs": [
                {
                    "internalType": "address",
                    "name": "to",
                    "type": "address"
                },
                {
                    "internalType": "uint256",
                    "name": "tokenId",
                    "type": "uint256"
                }
            ],
            "name": "approve",
            "outputs": [],
            "stateMutability": "nonpayable",
            "type": "function"
        },
        {
            "inputs": [
                {
                    "internalType": "address",
                    "name": "owner",
                    "type": "address"
                }
            ],
            "name": "balanceOf",
            "outputs": [
                {
                    "internalType": "uint256",
                    "name": "",
                    "type": "uint256"
                }
            ],
            "stateMutability": "view",
            "type": "function"
        },
        {
            "inputs": [
                {
                    "internalType": "uint256",
                    "name": "tokenId",
                    "type": "uint256"
                }
            ],
            "name": "getApproved",
            "outputs": [
                {
                    "internalType": "address",
                    "name": "",
                    "type": "address"
                }
            ],
            "stateMutability": "view",
            "type": "function"
        },
        {
            "inputs": [
                {
                    "internalType": "address",
                    "name": "owner",
                    "type": "address"
                },
                {
                    "internalType": "address",
                    "name": "operator",
                    "type": "address"
                }
            ],
            "name": "isApprovedForAll",
            "outputs": [
                {
                    "internalType": "bool",
                    "name": "",
                    "type": "bool"
                }
            ],
            "stateMutability": "view",
            "type": "function"
        },
        {
            "inputs": [],
            "name": "maxSupply",
            "outputs": [
                {
                    "internalType": "uint256",
                    "name": "",
                    "type": "uint256"
                }
            ],
            "stateMutability": "view",
            "type": "function"
        },
        {
            "inputs": [],
            "name": "maxUserLimit",
            "outputs": [
                {
                    "internalType": "uint256",
                    "name": "",
                    "type": "uint256"
                }
            ],
            "stateMutability": "view",
            "type": "function"
        },
        {
            "inputs": [
                {
                    "internalType": "string",
                    "name": "_uri",
                    "type": "string"
                }
            ],
            "name": "mint",
            "outputs": [],
            "stateMutability": "payable",
            "type": "function"
        },
        {
            "inputs": [],
            "name": "name",
            "outputs": [
                {
                    "internalType": "string",
                    "name": "",
                    "type": "string"
                }
            ],
            "stateMutability": "view",
            "type": "function"
        },
        {
            "inputs": [
                {
                    "internalType": "uint256",
                    "name": "tokenId",
                    "type": "uint256"
                }
            ],
            "name": "ownerOf",
            "outputs": [
                {
                    "internalType": "address",
                    "name": "",
                    "type": "address"
                }
            ],
            "stateMutability": "view",
            "type": "function"
        },
        {
            "inputs": [
                {
                    "internalType": "address",
                    "name": "from",
                    "type": "address"
                },
                {
                    "internalType": "address",
                    "name": "to",
                    "type": "address"
                },
                {
                    "internalType": "uint256",
                    "name": "tokenId",
                    "type": "uint256"
                }
            ],
            "name": "safeTransferFrom",
            "outputs": [],
            "stateMutability": "nonpayable",
            "type": "function"
        },
        {
            "inputs": [
                {
                    "internalType": "address",
                    "name": "from",
                    "type": "address"
                },
                {
                    "internalType": "address",
                    "name": "to",
                    "type": "address"
                },
                {
                    "internalType": "uint256",
                    "name": "tokenId",
                    "type": "uint256"
                },
                {
                    "internalType": "bytes",
                    "name": "data",
                    "type": "bytes"
                }
            ],
            "name": "safeTransferFrom",
            "outputs": [],
            "stateMutability": "nonpayable",
            "type": "function"
        },
        {
            "inputs": [
                {
                    "internalType": "address",
                    "name": "operator",
                    "type": "address"
                },
                {
                    "internalType": "bool",
                    "name": "approved",
                    "type": "bool"
                }
            ],
            "name": "setApprovalForAll",
            "outputs": [],
            "stateMutability": "nonpayable",
            "type": "function"
        },
        {
            "inputs": [
                {
                    "internalType": "bytes4",
                    "name": "interfaceId",
                    "type": "bytes4"
                }
            ],
            "name": "supportsInterface",
            "outputs": [
                {
                    "internalType": "bool",
                    "name": "",
                    "type": "bool"
                }
            ],
            "stateMutability": "view",
            "type": "function"
        },
        {
            "inputs": [],
            "name": "symbol",
            "outputs": [
                {
                    "internalType": "string",
                    "name": "",
                    "type": "string"
                }
            ],
            "stateMutability": "view",
            "type": "function"
        },
        {
            "inputs": [
                {
                    "internalType": "uint256",
                    "name": "tokenId",
                    "type": "uint256"
                }
            ],
            "name": "tokenURI",
            "outputs": [
                {
                    "internalType": "string",
                    "name": "",
                    "type": "string"
                }
            ],
            "stateMutability": "view",
            "type": "function"
        },
        {
            "inputs": [
                {
                    "internalType": "address",
                    "name": "from",
                    "type": "address"
                },
                {
                    "internalType": "address",
                    "name": "to",
                    "type": "address"
                },
                {
                    "internalType": "uint256",
                    "name": "tokenId",
                    "type": "uint256"
                }
            ],
            "name": "transferFrom",
            "outputs": [],
            "stateMutability": "nonpayable",
            "type": "function"
        }
    ],
    "bytecode": "0x60806040523480156200001157600080fd5b506040518060400160405280600a81526020017f50617274685661726465000000000000000000000000000000000000000000008152506040518060400160405280600281526020017f5056000000000000000000000000000000000000000000000000000000000000815250816000908051906020019062000096929190620000b8565b508060019080519060200190620000af929190620000b8565b505050620001cd565b828054620000c69062000197565b90600052602060002090601f016020900481019282620000ea576000855562000136565b82601f106200010557805160ff191683800117855562000136565b8280016001018555821562000136579182015b828111156200013557825182559160200191906001019062000118565b5b50905062000145919062000149565b5090565b5b80821115620001645760008160009055506001016200014a565b5090565b7f4e487b7100000000000000000000000000000000000000000000000000000000600052602260045260246000fd5b60006002820490506001821680620001b057607f821691505b60208210811415620001c757620001c662000168565b5b50919050565b612c9480620001dd6000396000f3fe6080604052600436106100f35760003560e01c806395d89b411161008a578063c87b56dd11610059578063c87b56dd1461033a578063d5abeb0114610377578063d85d3d27146103a2578063e985e9c5146103be576100f3565b806395d89b41146102925780639af023f4146102bd578063a22cb465146102e8578063b88d4fde14610311576100f3565b806323b872dd116100c657806323b872dd146101c657806342842e0e146101ef5780636352211e1461021857806370a0823114610255576100f3565b806301ffc9a7146100f857806306fdde0314610135578063081812fc14610160578063095ea7b31461019d575b600080fd5b34801561010457600080fd5b5061011f600480360381019061011a9190611ae4565b6103fb565b60405161012c9190611b2c565b60405180910390f35b34801561014157600080fd5b5061014a6104dd565b6040516101579190611be0565b60405180910390f35b34801561016c57600080fd5b5061018760048036038101906101829190611c38565b61056f565b6040516101949190611ca6565b60405180910390f35b3480156101a957600080fd5b506101c460048036038101906101bf9190611ced565b6105b5565b005b3480156101d257600080fd5b506101ed60048036038101906101e89190611d2d565b6106cd565b005b3480156101fb57600080fd5b5061021660048036038101906102119190611d2d565b61072d565b005b34801561022457600080fd5b5061023f600480360381019061023a9190611c38565b61074d565b60405161024c9190611ca6565b60405180910390f35b34801561026157600080fd5b5061027c60048036038101906102779190611d80565b6107ff565b6040516102899190611dbc565b60405180910390f35b34801561029e57600080fd5b506102a76108b7565b6040516102b49190611be0565b60405180910390f35b3480156102c957600080fd5b506102d2610949565b6040516102df9190611dbc565b60405180910390f35b3480156102f457600080fd5b5061030f600480360381019061030a9190611e03565b61094e565b005b34801561031d57600080fd5b5061033860048036038101906103339190611f78565b610964565b005b34801561034657600080fd5b50610361600480360381019061035c9190611c38565b6109c6565b60405161036e9190611be0565b60405180910390f35b34801561038357600080fd5b5061038c610ad9565b6040516103999190611dbc565b60405180910390f35b6103bc60048036038101906103b7919061209c565b610adf565b005b3480156103ca57600080fd5b506103e560048036038101906103e091906120e5565b610c21565b6040516103f29190611b2c565b60405180910390f35b60007f80ac58cd000000000000000000000000000000000000000000000000000000007bffffffffffffffffffffffffffffffffffffffffffffffffffffffff1916827bffffffffffffffffffffffffffffffffffffffffffffffffffffffff191614806104c657507f5b5e139f000000000000000000000000000000000000000000000000000000007bffffffffffffffffffffffffffffffffffffffffffffffffffffffff1916827bffffffffffffffffffffffffffffffffffffffffffffffffffffffff1916145b806104d657506104d582610cb5565b5b9050919050565b6060600080546104ec90612154565b80601f016020809104026020016040519081016040528092919081815260200182805461051890612154565b80156105655780601f1061053a57610100808354040283529160200191610565565b820191906000526020600020905b81548152906001019060200180831161054857829003601f168201915b5050505050905090565b600061057a82610d1f565b6004600083815260200190815260200160002060009054906101000a900473ffffffffffffffffffffffffffffffffffffffff169050919050565b60006105c08261074d565b90508073ffffffffffffffffffffffffffffffffffffffff168373ffffffffffffffffffffffffffffffffffffffff161415610631576040517f08c379a0000000000000000000000000000000000000000000000000000000008152600401610628906121f8565b60405180910390fd5b8073ffffffffffffffffffffffffffffffffffffffff16610650610d6a565b73ffffffffffffffffffffffffffffffffffffffff16148061067f575061067e81610679610d6a565b610c21565b5b6106be576040517f08c379a00000000000000000000000000000000000000000000000000000000081526004016106b59061228a565b60405180910390fd5b6106c88383610d72565b505050565b6106de6106d8610d6a565b82610e2b565b61071d576040517f08c379a00000000000000000000000000000000000000000000000000000000081526004016107149061231c565b60405180910390fd5b610728838383610ec0565b505050565b61074883838360405180602001604052806000815250610964565b505050565b6000806002600084815260200190815260200160002060009054906101000a900473ffffffffffffffffffffffffffffffffffffffff169050600073ffffffffffffffffffffffffffffffffffffffff168173ffffffffffffffffffffffffffffffffffffffff1614156107f6576040517f08c379a00000000000000000000000000000000000000000000000000000000081526004016107ed90612388565b60405180910390fd5b80915050919050565b60008073ffffffffffffffffffffffffffffffffffffffff168273ffffffffffffffffffffffffffffffffffffffff161415610870576040517f08c379a00000000000000000000000000000000000000000000000000000000081526004016108679061241a565b60405180910390fd5b600360008373ffffffffffffffffffffffffffffffffffffffff1673ffffffffffffffffffffffffffffffffffffffff168152602001908152602001600020549050919050565b6060600180546108c690612154565b80601f01602080910402602001604051908101604052809291908181526020018280546108f290612154565b801561093f5780601f106109145761010080835404028352916020019161093f565b820191906000526020600020905b81548152906001019060200180831161092257829003601f168201915b5050505050905090565b600181565b610960610959610d6a565b8383611127565b5050565b61097561096f610d6a565b83610e2b565b6109b4576040517f08c379a00000000000000000000000000000000000000000000000000000000081526004016109ab9061231c565b60405180910390fd5b6109c084848484611294565b50505050565b60606109d182610d1f565b60006006600084815260200190815260200160002080546109f190612154565b80601f0160208091040260200160405190810160405280929190818152602001828054610a1d90612154565b8015610a6a5780601f10610a3f57610100808354040283529160200191610a6a565b820191906000526020600020905b815481529060010190602001808311610a4d57829003601f168201915b505050505090506000610a7b6112f0565b9050600081511415610a91578192505050610ad4565b600082511115610ac6578082604051602001610aae929190612476565b60405160208183030381529060405292505050610ad4565b610acf84611307565b925050505b919050565b6103e781565b6103e7610aec600761136f565b1115610b2d576040517f08c379a0000000000000000000000000000000000000000000000000000000008152600401610b249061250c565b60405180910390fd5b6001610b38336107ff565b1115610b79576040517f08c379a0000000000000000000000000000000000000000000000000000000008152600401610b7090612578565b60405180910390fd5b655af3107a4000341115610bc2576040517f08c379a0000000000000000000000000000000000000000000000000000000008152600401610bb9906125e4565b60405180910390fd5b6000610bce600761136f565b9050610bda338261137d565b610be4818361139b565b7f4cc0a9c4a99ddc700de1af2c9f916a7cbfdb71f14801ccff94061ad1ef8a80403382604051610c15929190612604565b60405180910390a15050565b6000600560008473ffffffffffffffffffffffffffffffffffffffff1673ffffffffffffffffffffffffffffffffffffffff16815260200190815260200160002060008373ffffffffffffffffffffffffffffffffffffffff1673ffffffffffffffffffffffffffffffffffffffff16815260200190815260200160002060009054906101000a900460ff16905092915050565b60007f01ffc9a7000000000000000000000000000000000000000000000000000000007bffffffffffffffffffffffffffffffffffffffffffffffffffffffff1916827bffffffffffffffffffffffffffffffffffffffffffffffffffffffff1916149050919050565b610d288161140f565b610d67576040517f08c379a0000000000000000000000000000000000000000000000000000000008152600401610d5e90612388565b60405180910390fd5b50565b600033905090565b816004600083815260200190815260200160002060006101000a81548173ffffffffffffffffffffffffffffffffffffffff021916908373ffffffffffffffffffffffffffffffffffffffff160217905550808273ffffffffffffffffffffffffffffffffffffffff16610de58361074d565b73ffffffffffffffffffffffffffffffffffffffff167f8c5be1e5ebec7d5bd14f71427d1e84f3dd0314c0f7b2291e5b200ac8c7c3b92560405160405180910390a45050565b600080610e378361074d565b90508073ffffffffffffffffffffffffffffffffffffffff168473ffffffffffffffffffffffffffffffffffffffff161480610e795750610e788185610c21565b5b80610eb757508373ffffffffffffffffffffffffffffffffffffffff16610e9f8461056f565b73ffffffffffffffffffffffffffffffffffffffff16145b91505092915050565b8273ffffffffffffffffffffffffffffffffffffffff16610ee08261074d565b73ffffffffffffffffffffffffffffffffffffffff1614610f36576040517f08c379a0000000000000000000000000000000000000000000000000000000008152600401610f2d9061269f565b60405180910390fd5b600073ffffffffffffffffffffffffffffffffffffffff168273ffffffffffffffffffffffffffffffffffffffff161415610fa6576040517f08c379a0000000000000000000000000000000000000000000000000000000008152600401610f9d90612731565b60405180910390fd5b610fb183838361147b565b610fbc600082610d72565b6001600360008573ffffffffffffffffffffffffffffffffffffffff1673ffffffffffffffffffffffffffffffffffffffff168152602001908152602001600020600082825461100c9190612780565b925050819055506001600360008473ffffffffffffffffffffffffffffffffffffffff1673ffffffffffffffffffffffffffffffffffffffff168152602001908152602001600020600082825461106391906127b4565b92505081905550816002600083815260200190815260200160002060006101000a81548173ffffffffffffffffffffffffffffffffffffffff021916908373ffffffffffffffffffffffffffffffffffffffff160217905550808273ffffffffffffffffffffffffffffffffffffffff168473ffffffffffffffffffffffffffffffffffffffff167fddf252ad1be2c89b69c2b068fc378daa952ba7f163c4a11628f55a4df523b3ef60405160405180910390a4611122838383611480565b505050565b8173ffffffffffffffffffffffffffffffffffffffff168373ffffffffffffffffffffffffffffffffffffffff161415611196576040517f08c379a000000000000000000000000000000000000000000000000000000000815260040161118d90612856565b60405180910390fd5b80600560008573ffffffffffffffffffffffffffffffffffffffff1673ffffffffffffffffffffffffffffffffffffffff16815260200190815260200160002060008473ffffffffffffffffffffffffffffffffffffffff1673ffffffffffffffffffffffffffffffffffffffff16815260200190815260200160002060006101000a81548160ff0219169083151502179055508173ffffffffffffffffffffffffffffffffffffffff168373ffffffffffffffffffffffffffffffffffffffff167f17307eab39ab6107e8899845ad3d59bd9653f200f220920489ca2b5937696c31836040516112879190611b2c565b60405180910390a3505050565b61129f848484610ec0565b6112ab84848484611485565b6112ea576040517f08c379a00000000000000000000000000000000000000000000000000000000081526004016112e1906128e8565b60405180910390fd5b50505050565b606060405180602001604052806000815250905090565b606061131282610d1f565b600061131c6112f0565b9050600081511161133c5760405180602001604052806000815250611367565b806113468461161c565b604051602001611357929190612476565b6040516020818303038152906040525b915050919050565b600081600001549050919050565b61139782826040518060200160405280600081525061177d565b5050565b6113a48261140f565b6113e3576040517f08c379a00000000000000000000000000000000000000000000000000000000081526004016113da9061297a565b60405180910390fd5b8060066000848152602001908152602001600020908051906020019061140a9291906119d5565b505050565b60008073ffffffffffffffffffffffffffffffffffffffff166002600084815260200190815260200160002060009054906101000a900473ffffffffffffffffffffffffffffffffffffffff1673ffffffffffffffffffffffffffffffffffffffff1614159050919050565b505050565b505050565b60006114a68473ffffffffffffffffffffffffffffffffffffffff166117d8565b1561160f578373ffffffffffffffffffffffffffffffffffffffff1663150b7a026114cf610d6a565b8786866040518563ffffffff1660e01b81526004016114f194939291906129ef565b602060405180830381600087803b15801561150b57600080fd5b505af192505050801561153c57506040513d601f19601f820116820180604052508101906115399190612a50565b60015b6115bf573d806000811461156c576040519150601f19603f3d011682016040523d82523d6000602084013e611571565b606091505b506000815114156115b7576040517f08c379a00000000000000000000000000000000000000000000000000000000081526004016115ae906128e8565b60405180910390fd5b805181602001fd5b63150b7a0260e01b7bffffffffffffffffffffffffffffffffffffffffffffffffffffffff1916817bffffffffffffffffffffffffffffffffffffffffffffffffffffffff191614915050611614565b600190505b949350505050565b60606000821415611664576040518060400160405280600181526020017f30000000000000000000000000000000000000000000000000000000000000008152509050611778565b600082905060005b6000821461169657808061167f90612a7d565b915050600a8261168f9190612af5565b915061166c565b60008167ffffffffffffffff8111156116b2576116b1611e4d565b5b6040519080825280601f01601f1916602001820160405280156116e45781602001600182028036833780820191505090505b5090505b60008514611771576001826116fd9190612780565b9150600a8561170c9190612b26565b603061171891906127b4565b60f81b81838151811061172e5761172d612b57565b5b60200101907effffffffffffffffffffffffffffffffffffffffffffffffffffffffffffff1916908160001a905350600a8561176a9190612af5565b94506116e8565b8093505050505b919050565b61178783836117fb565b6117946000848484611485565b6117d3576040517f08c379a00000000000000000000000000000000000000000000000000000000081526004016117ca906128e8565b60405180910390fd5b505050565b6000808273ffffffffffffffffffffffffffffffffffffffff163b119050919050565b600073ffffffffffffffffffffffffffffffffffffffff168273ffffffffffffffffffffffffffffffffffffffff16141561186b576040517f08c379a000000000000000000000000000000000000000000000000000000000815260040161186290612bd2565b60405180910390fd5b6118748161140f565b156118b4576040517f08c379a00000000000000000000000000000000000000000000000000000000081526004016118ab90612c3e565b60405180910390fd5b6118c06000838361147b565b6001600360008473ffffffffffffffffffffffffffffffffffffffff1673ffffffffffffffffffffffffffffffffffffffff168152602001908152602001600020600082825461191091906127b4565b92505081905550816002600083815260200190815260200160002060006101000a81548173ffffffffffffffffffffffffffffffffffffffff021916908373ffffffffffffffffffffffffffffffffffffffff160217905550808273ffffffffffffffffffffffffffffffffffffffff16600073ffffffffffffffffffffffffffffffffffffffff167fddf252ad1be2c89b69c2b068fc378daa952ba7f163c4a11628f55a4df523b3ef60405160405180910390a46119d160008383611480565b5050565b8280546119e190612154565b90600052602060002090601f016020900481019282611a035760008555611a4a565b82601f10611a1c57805160ff1916838001178555611a4a565b82800160010185558215611a4a579182015b82811115611a49578251825591602001919060010190611a2e565b5b509050611a579190611a5b565b5090565b5b80821115611a74576000816000905550600101611a5c565b5090565b6000604051905090565b600080fd5b600080fd5b60007fffffffff0000000000000000000000000000000000000000000000000000000082169050919050565b611ac181611a8c565b8114611acc57600080fd5b50565b600081359050611ade81611ab8565b92915050565b600060208284031215611afa57611af9611a82565b5b6000611b0884828501611acf565b91505092915050565b60008115159050919050565b611b2681611b11565b82525050565b6000602082019050611b416000830184611b1d565b92915050565b600081519050919050565b600082825260208201905092915050565b60005b83811015611b81578082015181840152602081019050611b66565b83811115611b90576000848401525b50505050565b6000601f19601f8301169050919050565b6000611bb282611b47565b611bbc8185611b52565b9350611bcc818560208601611b63565b611bd581611b96565b840191505092915050565b60006020820190508181036000830152611bfa8184611ba7565b905092915050565b6000819050919050565b611c1581611c02565b8114611c2057600080fd5b50565b600081359050611c3281611c0c565b92915050565b600060208284031215611c4e57611c4d611a82565b5b6000611c5c84828501611c23565b91505092915050565b600073ffffffffffffffffffffffffffffffffffffffff82169050919050565b6000611c9082611c65565b9050919050565b611ca081611c85565b82525050565b6000602082019050611cbb6000830184611c97565b92915050565b611cca81611c85565b8114611cd557600080fd5b50565b600081359050611ce781611cc1565b92915050565b60008060408385031215611d0457611d03611a82565b5b6000611d1285828601611cd8565b9250506020611d2385828601611c23565b9150509250929050565b600080600060608486031215611d4657611d45611a82565b5b6000611d5486828701611cd8565b9350506020611d6586828701611cd8565b9250506040611d7686828701611c23565b9150509250925092565b600060208284031215611d9657611d95611a82565b5b6000611da484828501611cd8565b91505092915050565b611db681611c02565b82525050565b6000602082019050611dd16000830184611dad565b92915050565b611de081611b11565b8114611deb57600080fd5b50565b600081359050611dfd81611dd7565b92915050565b60008060408385031215611e1a57611e19611a82565b5b6000611e2885828601611cd8565b9250506020611e3985828601611dee565b9150509250929050565b600080fd5b600080fd5b7f4e487b7100000000000000000000000000000000000000000000000000000000600052604160045260246000fd5b611e8582611b96565b810181811067ffffffffffffffff82111715611ea457611ea3611e4d565b5b80604052505050565b6000611eb7611a78565b9050611ec38282611e7c565b919050565b600067ffffffffffffffff821115611ee357611ee2611e4d565b5b611eec82611b96565b9050602081019050919050565b82818337600083830152505050565b6000611f1b611f1684611ec8565b611ead565b905082815260208101848484011115611f3757611f36611e48565b5b611f42848285611ef9565b509392505050565b600082601f830112611f5f57611f5e611e43565b5b8135611f6f848260208601611f08565b91505092915050565b60008060008060808587031215611f9257611f91611a82565b5b6000611fa087828801611cd8565b9450506020611fb187828801611cd8565b9350506040611fc287828801611c23565b925050606085013567ffffffffffffffff811115611fe357611fe2611a87565b5b611fef87828801611f4a565b91505092959194509250565b600067ffffffffffffffff82111561201657612015611e4d565b5b61201f82611b96565b9050602081019050919050565b600061203f61203a84611ffb565b611ead565b90508281526020810184848401111561205b5761205a611e48565b5b612066848285611ef9565b509392505050565b600082601f83011261208357612082611e43565b5b813561209384826020860161202c565b91505092915050565b6000602082840312156120b2576120b1611a82565b5b600082013567ffffffffffffffff8111156120d0576120cf611a87565b5b6120dc8482850161206e565b91505092915050565b600080604083850312156120fc576120fb611a82565b5b600061210a85828601611cd8565b925050602061211b85828601611cd8565b9150509250929050565b7f4e487b7100000000000000000000000000000000000000000000000000000000600052602260045260246000fd5b6000600282049050600182168061216c57607f821691505b602082108114156121805761217f612125565b5b50919050565b7f4552433732313a20617070726f76616c20746f2063757272656e74206f776e6560008201527f7200000000000000000000000000000000000000000000000000000000000000602082015250565b60006121e2602183611b52565b91506121ed82612186565b604082019050919050565b60006020820190508181036000830152612211816121d5565b9050919050565b7f4552433732313a20617070726f76652063616c6c6572206973206e6f7420746f60008201527f6b656e206f776e6572206e6f7220617070726f76656420666f7220616c6c0000602082015250565b6000612274603e83611b52565b915061227f82612218565b604082019050919050565b600060208201905081810360008301526122a381612267565b9050919050565b7f4552433732313a2063616c6c6572206973206e6f7420746f6b656e206f776e6560008201527f72206e6f7220617070726f766564000000000000000000000000000000000000602082015250565b6000612306602e83611b52565b9150612311826122aa565b604082019050919050565b60006020820190508181036000830152612335816122f9565b9050919050565b7f4552433732313a20696e76616c696420746f6b656e2049440000000000000000600082015250565b6000612372601883611b52565b915061237d8261233c565b602082019050919050565b600060208201905081810360008301526123a181612365565b9050919050565b7f4552433732313a2061646472657373207a65726f206973206e6f74206120766160008201527f6c6964206f776e65720000000000000000000000000000000000000000000000602082015250565b6000612404602983611b52565b915061240f826123a8565b604082019050919050565b60006020820190508181036000830152612433816123f7565b9050919050565b600081905092915050565b600061245082611b47565b61245a818561243a565b935061246a818560208601611b63565b80840191505092915050565b60006124828285612445565b915061248e8284612445565b91508190509392505050565b7f4e6f206d6f7265204e46547320617661696c61626c6520696e2074686520636f60008201527f6c6c656374696f6e2e0000000000000000000000000000000000000000000000602082015250565b60006124f6602983611b52565b91506125018261249a565b604082019050919050565b60006020820190508181036000830152612525816124e9565b9050919050565b7f4f6e6c79206f6e65204e46542070657220757365720000000000000000000000600082015250565b6000612562601583611b52565b915061256d8261252c565b602082019050919050565b6000602082019050818103600083015261259181612555565b9050919050565b7f4e6f7420656e6f75676820657468657220746f206d696e7420746865204e4654600082015250565b60006125ce602083611b52565b91506125d982612598565b602082019050919050565b600060208201905081810360008301526125fd816125c1565b9050919050565b60006040820190506126196000830185611c97565b6126266020830184611dad565b9392505050565b7f4552433732313a207472616e736665722066726f6d20696e636f72726563742060008201527f6f776e6572000000000000000000000000000000000000000000000000000000602082015250565b6000612689602583611b52565b91506126948261262d565b604082019050919050565b600060208201905081810360008301526126b88161267c565b9050919050565b7f4552433732313a207472616e7366657220746f20746865207a65726f2061646460008201527f7265737300000000000000000000000000000000000000000000000000000000602082015250565b600061271b602483611b52565b9150612726826126bf565b604082019050919050565b6000602082019050818103600083015261274a8161270e565b9050919050565b7f4e487b7100000000000000000000000000000000000000000000000000000000600052601160045260246000fd5b600061278b82611c02565b915061279683611c02565b9250828210156127a9576127a8612751565b5b828203905092915050565b60006127bf82611c02565b91506127ca83611c02565b9250827fffffffffffffffffffffffffffffffffffffffffffffffffffffffffffffffff038211156127ff576127fe612751565b5b828201905092915050565b7f4552433732313a20617070726f766520746f2063616c6c657200000000000000600082015250565b6000612840601983611b52565b915061284b8261280a565b602082019050919050565b6000602082019050818103600083015261286f81612833565b9050919050565b7f4552433732313a207472616e7366657220746f206e6f6e20455243373231526560008201527f63656976657220696d706c656d656e7465720000000000000000000000000000602082015250565b60006128d2603283611b52565b91506128dd82612876565b604082019050919050565b60006020820190508181036000830152612901816128c5565b9050919050565b7f45524337323155524953746f726167653a2055524920736574206f66206e6f6e60008201527f6578697374656e7420746f6b656e000000000000000000000000000000000000602082015250565b6000612964602e83611b52565b915061296f82612908565b604082019050919050565b6000602082019050818103600083015261299381612957565b9050919050565b600081519050919050565b600082825260208201905092915050565b60006129c18261299a565b6129cb81856129a5565b93506129db818560208601611b63565b6129e481611b96565b840191505092915050565b6000608082019050612a046000830187611c97565b612a116020830186611c97565b612a1e6040830185611dad565b8181036060830152612a3081846129b6565b905095945050505050565b600081519050612a4a81611ab8565b92915050565b600060208284031215612a6657612a65611a82565b5b6000612a7484828501612a3b565b91505092915050565b6000612a8882611c02565b91507fffffffffffffffffffffffffffffffffffffffffffffffffffffffffffffffff821415612abb57612aba612751565b5b600182019050919050565b7f4e487b7100000000000000000000000000000000000000000000000000000000600052601260045260246000fd5b6000612b0082611c02565b9150612b0b83611c02565b925082612b1b57612b1a612ac6565b5b828204905092915050565b6000612b3182611c02565b9150612b3c83611c02565b925082612b4c57612b4b612ac6565b5b828206905092915050565b7f4e487b7100000000000000000000000000000000000000000000000000000000600052603260045260246000fd5b7f4552433732313a206d696e7420746f20746865207a65726f2061646472657373600082015250565b6000612bbc602083611b52565b9150612bc782612b86565b602082019050919050565b60006020820190508181036000830152612beb81612baf565b9050919050565b7f4552433732313a20746f6b656e20616c7265616479206d696e74656400000000600082015250565b6000612c28601c83611b52565b9150612c3382612bf2565b602082019050919050565b60006020820190508181036000830152612c5781612c1b565b905091905056fea26469706673582212209957bc7fccb47fcd81e2970e3596ad6b7e020c8f5cb5245c446ffc61cf81bb4564736f6c63430008090033",
    "linkReferences": {},
    "deployedLinkReferences": {}
}