{
  "_format": "hh-sol-artifact-1",
  "contractName": "NFTMarketplace",
  "sourceName": "contracts/NFTMarketplace.sol",
  "abi": [
    {
      "inputs": [],
      "stateMutability": "nonpayable",
      "type": "constructor"
    },
    {
      "anonymous": false,
      "inputs": [
        {
          "indexed": true,
          "internalType": "address",
          "name": "owner",
          "type": "address"
        },
        {
          "indexed": true,
          "internalType": "address",
          "name": "approved",
          "type": "address"
        },
        {
          "indexed": true,
          "internalType": "uint256",
          "name": "tokenId",
          "type": "uint256"
        }
      ],
      "name": "Approval",
      "type": "event"
    },
    {
      "anonymous": false,
      "inputs": [
        {
          "indexed": true,
          "internalType": "address",
          "name": "owner",
          "type": "address"
        },
        {
          "indexed": true,
          "internalType": "address",
          "name": "operator",
          "type": "address"
        },
        {
          "indexed": false,
          "internalType": "bool",
          "name": "approved",
          "type": "bool"
        }
      ],
      "name": "ApprovalForAll",
      "type": "event"
    },
    {
      "anonymous": false,
      "inputs": [
        {
          "indexed": false,
          "internalType": "address",
          "name": "sender",
          "type": "address"
        },
        {
          "indexed": false,
          "internalType": "uint256",
          "name": "tokenId",
          "type": "uint256"
        }
      ],
      "name": "NFTMinted",
      "type": "event"
    },
    {
      "anonymous": false,
      "inputs": [
        {
          "indexed": true,
          "internalType": "address",
          "name": "from",
          "type": "address"
        },
        {
          "indexed": true,
          "internalType": "address",
          "name": "to",
          "type": "address"
        },
        {
          "indexed": true,
          "internalType": "uint256",
          "name": "tokenId",
          "type": "uint256"
        }
      ],
      "name": "Transfer",
      "type": "event"
    },
    {
      "inputs": [
        {
          "internalType": "address",
          "name": "to",
          "type": "address"
        },
        {
          "internalType": "uint256",
          "name": "tokenId",
          "type": "uint256"
        }
      ],
      "name": "approve",
      "outputs": [],
      "stateMutability": "nonpayable",
      "type": "function"
    },
    {
      "inputs": [
        {
          "internalType": "address",
          "name": "owner",
          "type": "address"
        }
      ],
      "name": "balanceOf",
      "outputs": [
        {
          "internalType": "uint256",
          "name": "",
          "type": "uint256"
        }
      ],
      "stateMutability": "view",
      "type": "function"
    },
    {
      "inputs": [
        {
          "internalType": "uint256",
          "name": "tokenId",
          "type": "uint256"
        }
      ],
      "name": "getApproved",
      "outputs": [
        {
          "internalType": "address",
          "name": "",
          "type": "address"
        }
      ],
      "stateMutability": "view",
      "type": "function"
    },
    {
      "inputs": [
        {
          "internalType": "address",
          "name": "_address",
          "type": "address"
        }
      ],
      "name": "getBalance",
      "outputs": [
        {
          "internalType": "uint256",
          "name": "",
          "type": "uint256"
        }
      ],
      "stateMutability": "view",
      "type": "function"
    },
    {
      "inputs": [
        {
          "internalType": "address",
          "name": "owner",
          "type": "address"
        },
        {
          "internalType": "address",
          "name": "operator",
          "type": "address"
        }
      ],
      "name": "isApprovedForAll",
      "outputs": [
        {
          "internalType": "bool",
          "name": "",
          "type": "bool"
        }
      ],
      "stateMutability": "view",
      "type": "function"
    },
    {
      "inputs": [],
      "name": "maxSupply",
      "outputs": [
        {
          "internalType": "uint256",
          "name": "",
          "type": "uint256"
        }
      ],
      "stateMutability": "view",
      "type": "function"
    },
    {
      "inputs": [],
      "name": "maxUserLimit",
      "outputs": [
        {
          "internalType": "uint256",
          "name": "",
          "type": "uint256"
        }
      ],
      "stateMutability": "view",
      "type": "function"
    },
    {
      "inputs": [
        {
          "internalType": "string",
          "name": "_uri",
          "type": "string"
        }
      ],
      "name": "mint",
      "outputs": [],
      "stateMutability": "payable",
      "type": "function"
    },
    {
      "inputs": [],
      "name": "name",
      "outputs": [
        {
          "internalType": "string",
          "name": "",
          "type": "string"
        }
      ],
      "stateMutability": "view",
      "type": "function"
    },
    {
      "inputs": [
        {
          "internalType": "uint256",
          "name": "tokenId",
          "type": "uint256"
        }
      ],
      "name": "ownerOf",
      "outputs": [
        {
          "internalType": "address",
          "name": "",
          "type": "address"
        }
      ],
      "stateMutability": "view",
      "type": "function"
    },
    {
      "inputs": [
        {
          "internalType": "address",
          "name": "from",
          "type": "address"
        },
        {
          "internalType": "address",
          "name": "to",
          "type": "address"
        },
        {
          "internalType": "uint256",
          "name": "tokenId",
          "type": "uint256"
        }
      ],
      "name": "safeTransferFrom",
      "outputs": [],
      "stateMutability": "nonpayable",
      "type": "function"
    },
    {
      "inputs": [
        {
          "internalType": "address",
          "name": "from",
          "type": "address"
        },
        {
          "internalType": "address",
          "name": "to",
          "type": "address"
        },
        {
          "internalType": "uint256",
          "name": "tokenId",
          "type": "uint256"
        },
        {
          "internalType": "bytes",
          "name": "data",
          "type": "bytes"
        }
      ],
      "name": "safeTransferFrom",
      "outputs": [],
      "stateMutability": "nonpayable",
      "type": "function"
    },
    {
      "inputs": [
        {
          "internalType": "address",
          "name": "operator",
          "type": "address"
        },
        {
          "internalType": "bool",
          "name": "approved",
          "type": "bool"
        }
      ],
      "name": "setApprovalForAll",
      "outputs": [],
      "stateMutability": "nonpayable",
      "type": "function"
    },
    {
      "inputs": [
        {
          "internalType": "bytes4",
          "name": "interfaceId",
          "type": "bytes4"
        }
      ],
      "name": "supportsInterface",
      "outputs": [
        {
          "internalType": "bool",
          "name": "",
          "type": "bool"
        }
      ],
      "stateMutability": "view",
      "type": "function"
    },
    {
      "inputs": [],
      "name": "symbol",
      "outputs": [
        {
          "internalType": "string",
          "name": "",
          "type": "string"
        }
      ],
      "stateMutability": "view",
      "type": "function"
    },
    {
      "inputs": [
        {
          "internalType": "uint256",
          "name": "tokenId",
          "type": "uint256"
        }
      ],
      "name": "tokenURI",
      "outputs": [
        {
          "internalType": "string",
          "name": "",
          "type": "string"
        }
      ],
      "stateMutability": "view",
      "type": "function"
    },
    {
      "inputs": [
        {
          "internalType": "address",
          "name": "from",
          "type": "address"
        },
        {
          "internalType": "address",
          "name": "to",
          "type": "address"
        },
        {
          "internalType": "uint256",
          "name": "tokenId",
          "type": "uint256"
        }
      ],
      "name": "transferFrom",
      "outputs": [],
      "stateMutability": "nonpayable",
      "type": "function"
    }
  ],
  "bytecode": "0x60806040523480156200001157600080fd5b506040518060400160405280600a81526020017f50617274685661726465000000000000000000000000000000000000000000008152506040518060400160405280600281526020017f5056000000000000000000000000000000000000000000000000000000000000815250816000908051906020019062000096929190620000b8565b508060019080519060200190620000af929190620000b8565b505050620001cd565b828054620000c69062000197565b90600052602060002090601f016020900481019282620000ea576000855562000136565b82601f106200010557805160ff191683800117855562000136565b8280016001018555821562000136579182015b828111156200013557825182559160200191906001019062000118565b5b50905062000145919062000149565b5090565b5b80821115620001645760008160009055506001016200014a565b5090565b7f4e487b7100000000000000000000000000000000000000000000000000000000600052602260045260246000fd5b60006002820490506001821680620001b057607f821691505b60208210811415620001c757620001c662000168565b5b50919050565b612d0d80620001dd6000396000f3fe6080604052600436106100fe5760003560e01c806395d89b4111610095578063c87b56dd11610064578063c87b56dd14610345578063d5abeb0114610382578063d85d3d27146103ad578063e985e9c5146103c9578063f8b2cb4f14610406576100fe565b806395d89b411461029d5780639af023f4146102c8578063a22cb465146102f3578063b88d4fde1461031c576100fe565b806323b872dd116100d157806323b872dd146101d157806342842e0e146101fa5780636352211e1461022357806370a0823114610260576100fe565b806301ffc9a71461010357806306fdde0314610140578063081812fc1461016b578063095ea7b3146101a8575b600080fd5b34801561010f57600080fd5b5061012a60048036038101906101259190611b5d565b610443565b6040516101379190611ba5565b60405180910390f35b34801561014c57600080fd5b50610155610525565b6040516101629190611c59565b60405180910390f35b34801561017757600080fd5b50610192600480360381019061018d9190611cb1565b6105b7565b60405161019f9190611d1f565b60405180910390f35b3480156101b457600080fd5b506101cf60048036038101906101ca9190611d66565b6105fd565b005b3480156101dd57600080fd5b506101f860048036038101906101f39190611da6565b610715565b005b34801561020657600080fd5b50610221600480360381019061021c9190611da6565b610775565b005b34801561022f57600080fd5b5061024a60048036038101906102459190611cb1565b610795565b6040516102579190611d1f565b60405180910390f35b34801561026c57600080fd5b5061028760048036038101906102829190611df9565b610847565b6040516102949190611e35565b60405180910390f35b3480156102a957600080fd5b506102b26108ff565b6040516102bf9190611c59565b60405180910390f35b3480156102d457600080fd5b506102dd610991565b6040516102ea9190611e35565b60405180910390f35b3480156102ff57600080fd5b5061031a60048036038101906103159190611e7c565b610996565b005b34801561032857600080fd5b50610343600480360381019061033e9190611ff1565b6109ac565b005b34801561035157600080fd5b5061036c60048036038101906103679190611cb1565b610a0e565b6040516103799190611c59565b60405180910390f35b34801561038e57600080fd5b50610397610b21565b6040516103a49190611e35565b60405180910390f35b6103c760048036038101906103c29190612115565b610b27565b005b3480156103d557600080fd5b506103f060048036038101906103eb919061215e565b610c72565b6040516103fd9190611ba5565b60405180910390f35b34801561041257600080fd5b5061042d60048036038101906104289190611df9565b610d06565b60405161043a9190611e35565b60405180910390f35b60007f80ac58cd000000000000000000000000000000000000000000000000000000007bffffffffffffffffffffffffffffffffffffffffffffffffffffffff1916827bffffffffffffffffffffffffffffffffffffffffffffffffffffffff1916148061050e57507f5b5e139f000000000000000000000000000000000000000000000000000000007bffffffffffffffffffffffffffffffffffffffffffffffffffffffff1916827bffffffffffffffffffffffffffffffffffffffffffffffffffffffff1916145b8061051e575061051d82610d18565b5b9050919050565b606060008054610534906121cd565b80601f0160208091040260200160405190810160405280929190818152602001828054610560906121cd565b80156105ad5780601f10610582576101008083540402835291602001916105ad565b820191906000526020600020905b81548152906001019060200180831161059057829003601f168201915b5050505050905090565b60006105c282610d82565b6004600083815260200190815260200160002060009054906101000a900473ffffffffffffffffffffffffffffffffffffffff169050919050565b600061060882610795565b90508073ffffffffffffffffffffffffffffffffffffffff168373ffffffffffffffffffffffffffffffffffffffff161415610679576040517f08c379a000000000000000000000000000000000000000000000000000000000815260040161067090612271565b60405180910390fd5b8073ffffffffffffffffffffffffffffffffffffffff16610698610dcd565b73ffffffffffffffffffffffffffffffffffffffff1614806106c757506106c6816106c1610dcd565b610c72565b5b610706576040517f08c379a00000000000000000000000000000000000000000000000000000000081526004016106fd90612303565b60405180910390fd5b6107108383610dd5565b505050565b610726610720610dcd565b82610e8e565b610765576040517f08c379a000000000000000000000000000000000000000000000000000000000815260040161075c90612395565b60405180910390fd5b610770838383610f23565b505050565b610790838383604051806020016040528060008152506109ac565b505050565b6000806002600084815260200190815260200160002060009054906101000a900473ffffffffffffffffffffffffffffffffffffffff169050600073ffffffffffffffffffffffffffffffffffffffff168173ffffffffffffffffffffffffffffffffffffffff16141561083e576040517f08c379a000000000000000000000000000000000000000000000000000000000815260040161083590612401565b60405180910390fd5b80915050919050565b60008073ffffffffffffffffffffffffffffffffffffffff168273ffffffffffffffffffffffffffffffffffffffff1614156108b8576040517f08c379a00000000000000000000000000000000000000000000000000000000081526004016108af90612493565b60405180910390fd5b600360008373ffffffffffffffffffffffffffffffffffffffff1673ffffffffffffffffffffffffffffffffffffffff168152602001908152602001600020549050919050565b60606001805461090e906121cd565b80601f016020809104026020016040519081016040528092919081815260200182805461093a906121cd565b80156109875780601f1061095c57610100808354040283529160200191610987565b820191906000526020600020905b81548152906001019060200180831161096a57829003601f168201915b5050505050905090565b600181565b6109a86109a1610dcd565b838361118a565b5050565b6109bd6109b7610dcd565b83610e8e565b6109fc576040517f08c379a00000000000000000000000000000000000000000000000000000000081526004016109f390612395565b60405180910390fd5b610a08848484846112f7565b50505050565b6060610a1982610d82565b6000600660008481526020019081526020016000208054610a39906121cd565b80601f0160208091040260200160405190810160405280929190818152602001828054610a65906121cd565b8015610ab25780601f10610a8757610100808354040283529160200191610ab2565b820191906000526020600020905b815481529060010190602001808311610a9557829003601f168201915b505050505090506000610ac3611353565b9050600081511415610ad9578192505050610b1c565b600082511115610b0e578082604051602001610af69291906124ef565b60405160208183030381529060405292505050610b1c565b610b178461136a565b925050505b919050565b6103e781565b6103e7610b3460076113d2565b1115610b75576040517f08c379a0000000000000000000000000000000000000000000000000000000008152600401610b6c90612585565b60405180910390fd5b6001610b8033610847565b10610bc0576040517f08c379a0000000000000000000000000000000000000000000000000000000008152600401610bb7906125f1565b60405180910390fd5b655af3107a4000341115610c09576040517f08c379a0000000000000000000000000000000000000000000000000000000008152600401610c009061265d565b60405180910390fd5b6000610c1560076113d2565b9050610c2133826113e0565b610c2b81836113fe565b610c356007611472565b7f4cc0a9c4a99ddc700de1af2c9f916a7cbfdb71f14801ccff94061ad1ef8a80403382604051610c6692919061267d565b60405180910390a15050565b6000600560008473ffffffffffffffffffffffffffffffffffffffff1673ffffffffffffffffffffffffffffffffffffffff16815260200190815260200160002060008373ffffffffffffffffffffffffffffffffffffffff1673ffffffffffffffffffffffffffffffffffffffff16815260200190815260200160002060009054906101000a900460ff16905092915050565b6000610d1182610847565b9050919050565b60007f01ffc9a7000000000000000000000000000000000000000000000000000000007bffffffffffffffffffffffffffffffffffffffffffffffffffffffff1916827bffffffffffffffffffffffffffffffffffffffffffffffffffffffff1916149050919050565b610d8b81611488565b610dca576040517f08c379a0000000000000000000000000000000000000000000000000000000008152600401610dc190612401565b60405180910390fd5b50565b600033905090565b816004600083815260200190815260200160002060006101000a81548173ffffffffffffffffffffffffffffffffffffffff021916908373ffffffffffffffffffffffffffffffffffffffff160217905550808273ffffffffffffffffffffffffffffffffffffffff16610e4883610795565b73ffffffffffffffffffffffffffffffffffffffff167f8c5be1e5ebec7d5bd14f71427d1e84f3dd0314c0f7b2291e5b200ac8c7c3b92560405160405180910390a45050565b600080610e9a83610795565b90508073ffffffffffffffffffffffffffffffffffffffff168473ffffffffffffffffffffffffffffffffffffffff161480610edc5750610edb8185610c72565b5b80610f1a57508373ffffffffffffffffffffffffffffffffffffffff16610f02846105b7565b73ffffffffffffffffffffffffffffffffffffffff16145b91505092915050565b8273ffffffffffffffffffffffffffffffffffffffff16610f4382610795565b73ffffffffffffffffffffffffffffffffffffffff1614610f99576040517f08c379a0000000000000000000000000000000000000000000000000000000008152600401610f9090612718565b60405180910390fd5b600073ffffffffffffffffffffffffffffffffffffffff168273ffffffffffffffffffffffffffffffffffffffff161415611009576040517f08c379a0000000000000000000000000000000000000000000000000000000008152600401611000906127aa565b60405180910390fd5b6110148383836114f4565b61101f600082610dd5565b6001600360008573ffffffffffffffffffffffffffffffffffffffff1673ffffffffffffffffffffffffffffffffffffffff168152602001908152602001600020600082825461106f91906127f9565b925050819055506001600360008473ffffffffffffffffffffffffffffffffffffffff1673ffffffffffffffffffffffffffffffffffffffff16815260200190815260200160002060008282546110c6919061282d565b92505081905550816002600083815260200190815260200160002060006101000a81548173ffffffffffffffffffffffffffffffffffffffff021916908373ffffffffffffffffffffffffffffffffffffffff160217905550808273ffffffffffffffffffffffffffffffffffffffff168473ffffffffffffffffffffffffffffffffffffffff167fddf252ad1be2c89b69c2b068fc378daa952ba7f163c4a11628f55a4df523b3ef60405160405180910390a46111858383836114f9565b505050565b8173ffffffffffffffffffffffffffffffffffffffff168373ffffffffffffffffffffffffffffffffffffffff1614156111f9576040517f08c379a00000000000000000000000000000000000000000000000000000000081526004016111f0906128cf565b60405180910390fd5b80600560008573ffffffffffffffffffffffffffffffffffffffff1673ffffffffffffffffffffffffffffffffffffffff16815260200190815260200160002060008473ffffffffffffffffffffffffffffffffffffffff1673ffffffffffffffffffffffffffffffffffffffff16815260200190815260200160002060006101000a81548160ff0219169083151502179055508173ffffffffffffffffffffffffffffffffffffffff168373ffffffffffffffffffffffffffffffffffffffff167f17307eab39ab6107e8899845ad3d59bd9653f200f220920489ca2b5937696c31836040516112ea9190611ba5565b60405180910390a3505050565b611302848484610f23565b61130e848484846114fe565b61134d576040517f08c379a000000000000000000000000000000000000000000000000000000000815260040161134490612961565b60405180910390fd5b50505050565b606060405180602001604052806000815250905090565b606061137582610d82565b600061137f611353565b9050600081511161139f57604051806020016040528060008152506113ca565b806113a984611695565b6040516020016113ba9291906124ef565b6040516020818303038152906040525b915050919050565b600081600001549050919050565b6113fa8282604051806020016040528060008152506117f6565b5050565b61140782611488565b611446576040517f08c379a000000000000000000000000000000000000000000000000000000000815260040161143d906129f3565b60405180910390fd5b8060066000848152602001908152602001600020908051906020019061146d929190611a4e565b505050565b6001816000016000828254019250508190555050565b60008073ffffffffffffffffffffffffffffffffffffffff166002600084815260200190815260200160002060009054906101000a900473ffffffffffffffffffffffffffffffffffffffff1673ffffffffffffffffffffffffffffffffffffffff1614159050919050565b505050565b505050565b600061151f8473ffffffffffffffffffffffffffffffffffffffff16611851565b15611688578373ffffffffffffffffffffffffffffffffffffffff1663150b7a02611548610dcd565b8786866040518563ffffffff1660e01b815260040161156a9493929190612a68565b602060405180830381600087803b15801561158457600080fd5b505af19250505080156115b557506040513d601f19601f820116820180604052508101906115b29190612ac9565b60015b611638573d80600081146115e5576040519150601f19603f3d011682016040523d82523d6000602084013e6115ea565b606091505b50600081511415611630576040517f08c379a000000000000000000000000000000000000000000000000000000000815260040161162790612961565b60405180910390fd5b805181602001fd5b63150b7a0260e01b7bffffffffffffffffffffffffffffffffffffffffffffffffffffffff1916817bffffffffffffffffffffffffffffffffffffffffffffffffffffffff19161491505061168d565b600190505b949350505050565b606060008214156116dd576040518060400160405280600181526020017f300000000000000000000000000000000000000000000000000000000000000081525090506117f1565b600082905060005b6000821461170f5780806116f890612af6565b915050600a826117089190612b6e565b91506116e5565b60008167ffffffffffffffff81111561172b5761172a611ec6565b5b6040519080825280601f01601f19166020018201604052801561175d5781602001600182028036833780820191505090505b5090505b600085146117ea5760018261177691906127f9565b9150600a856117859190612b9f565b6030611791919061282d565b60f81b8183815181106117a7576117a6612bd0565b5b60200101907effffffffffffffffffffffffffffffffffffffffffffffffffffffffffffff1916908160001a905350600a856117e39190612b6e565b9450611761565b8093505050505b919050565b6118008383611874565b61180d60008484846114fe565b61184c576040517f08c379a000000000000000000000000000000000000000000000000000000000815260040161184390612961565b60405180910390fd5b505050565b6000808273ffffffffffffffffffffffffffffffffffffffff163b119050919050565b600073ffffffffffffffffffffffffffffffffffffffff168273ffffffffffffffffffffffffffffffffffffffff1614156118e4576040517f08c379a00000000000000000000000000000000000000000000000000000000081526004016118db90612c4b565b60405180910390fd5b6118ed81611488565b1561192d576040517f08c379a000000000000000000000000000000000000000000000000000000000815260040161192490612cb7565b60405180910390fd5b611939600083836114f4565b6001600360008473ffffffffffffffffffffffffffffffffffffffff1673ffffffffffffffffffffffffffffffffffffffff1681526020019081526020016000206000828254611989919061282d565b92505081905550816002600083815260200190815260200160002060006101000a81548173ffffffffffffffffffffffffffffffffffffffff021916908373ffffffffffffffffffffffffffffffffffffffff160217905550808273ffffffffffffffffffffffffffffffffffffffff16600073ffffffffffffffffffffffffffffffffffffffff167fddf252ad1be2c89b69c2b068fc378daa952ba7f163c4a11628f55a4df523b3ef60405160405180910390a4611a4a600083836114f9565b5050565b828054611a5a906121cd565b90600052602060002090601f016020900481019282611a7c5760008555611ac3565b82601f10611a9557805160ff1916838001178555611ac3565b82800160010185558215611ac3579182015b82811115611ac2578251825591602001919060010190611aa7565b5b509050611ad09190611ad4565b5090565b5b80821115611aed576000816000905550600101611ad5565b5090565b6000604051905090565b600080fd5b600080fd5b60007fffffffff0000000000000000000000000000000000000000000000000000000082169050919050565b611b3a81611b05565b8114611b4557600080fd5b50565b600081359050611b5781611b31565b92915050565b600060208284031215611b7357611b72611afb565b5b6000611b8184828501611b48565b91505092915050565b60008115159050919050565b611b9f81611b8a565b82525050565b6000602082019050611bba6000830184611b96565b92915050565b600081519050919050565b600082825260208201905092915050565b60005b83811015611bfa578082015181840152602081019050611bdf565b83811115611c09576000848401525b50505050565b6000601f19601f8301169050919050565b6000611c2b82611bc0565b611c358185611bcb565b9350611c45818560208601611bdc565b611c4e81611c0f565b840191505092915050565b60006020820190508181036000830152611c738184611c20565b905092915050565b6000819050919050565b611c8e81611c7b565b8114611c9957600080fd5b50565b600081359050611cab81611c85565b92915050565b600060208284031215611cc757611cc6611afb565b5b6000611cd584828501611c9c565b91505092915050565b600073ffffffffffffffffffffffffffffffffffffffff82169050919050565b6000611d0982611cde565b9050919050565b611d1981611cfe565b82525050565b6000602082019050611d346000830184611d10565b92915050565b611d4381611cfe565b8114611d4e57600080fd5b50565b600081359050611d6081611d3a565b92915050565b60008060408385031215611d7d57611d7c611afb565b5b6000611d8b85828601611d51565b9250506020611d9c85828601611c9c565b9150509250929050565b600080600060608486031215611dbf57611dbe611afb565b5b6000611dcd86828701611d51565b9350506020611dde86828701611d51565b9250506040611def86828701611c9c565b9150509250925092565b600060208284031215611e0f57611e0e611afb565b5b6000611e1d84828501611d51565b91505092915050565b611e2f81611c7b565b82525050565b6000602082019050611e4a6000830184611e26565b92915050565b611e5981611b8a565b8114611e6457600080fd5b50565b600081359050611e7681611e50565b92915050565b60008060408385031215611e9357611e92611afb565b5b6000611ea185828601611d51565b9250506020611eb285828601611e67565b9150509250929050565b600080fd5b600080fd5b7f4e487b7100000000000000000000000000000000000000000000000000000000600052604160045260246000fd5b611efe82611c0f565b810181811067ffffffffffffffff82111715611f1d57611f1c611ec6565b5b80604052505050565b6000611f30611af1565b9050611f3c8282611ef5565b919050565b600067ffffffffffffffff821115611f5c57611f5b611ec6565b5b611f6582611c0f565b9050602081019050919050565b82818337600083830152505050565b6000611f94611f8f84611f41565b611f26565b905082815260208101848484011115611fb057611faf611ec1565b5b611fbb848285611f72565b509392505050565b600082601f830112611fd857611fd7611ebc565b5b8135611fe8848260208601611f81565b91505092915050565b6000806000806080858703121561200b5761200a611afb565b5b600061201987828801611d51565b945050602061202a87828801611d51565b935050604061203b87828801611c9c565b925050606085013567ffffffffffffffff81111561205c5761205b611b00565b5b61206887828801611fc3565b91505092959194509250565b600067ffffffffffffffff82111561208f5761208e611ec6565b5b61209882611c0f565b9050602081019050919050565b60006120b86120b384612074565b611f26565b9050828152602081018484840111156120d4576120d3611ec1565b5b6120df848285611f72565b509392505050565b600082601f8301126120fc576120fb611ebc565b5b813561210c8482602086016120a5565b91505092915050565b60006020828403121561212b5761212a611afb565b5b600082013567ffffffffffffffff81111561214957612148611b00565b5b612155848285016120e7565b91505092915050565b6000806040838503121561217557612174611afb565b5b600061218385828601611d51565b925050602061219485828601611d51565b9150509250929050565b7f4e487b7100000000000000000000000000000000000000000000000000000000600052602260045260246000fd5b600060028204905060018216806121e557607f821691505b602082108114156121f9576121f861219e565b5b50919050565b7f4552433732313a20617070726f76616c20746f2063757272656e74206f776e6560008201527f7200000000000000000000000000000000000000000000000000000000000000602082015250565b600061225b602183611bcb565b9150612266826121ff565b604082019050919050565b6000602082019050818103600083015261228a8161224e565b9050919050565b7f4552433732313a20617070726f76652063616c6c6572206973206e6f7420746f60008201527f6b656e206f776e6572206e6f7220617070726f76656420666f7220616c6c0000602082015250565b60006122ed603e83611bcb565b91506122f882612291565b604082019050919050565b6000602082019050818103600083015261231c816122e0565b9050919050565b7f4552433732313a2063616c6c6572206973206e6f7420746f6b656e206f776e6560008201527f72206e6f7220617070726f766564000000000000000000000000000000000000602082015250565b600061237f602e83611bcb565b915061238a82612323565b604082019050919050565b600060208201905081810360008301526123ae81612372565b9050919050565b7f4552433732313a20696e76616c696420746f6b656e2049440000000000000000600082015250565b60006123eb601883611bcb565b91506123f6826123b5565b602082019050919050565b6000602082019050818103600083015261241a816123de565b9050919050565b7f4552433732313a2061646472657373207a65726f206973206e6f74206120766160008201527f6c6964206f776e65720000000000000000000000000000000000000000000000602082015250565b600061247d602983611bcb565b915061248882612421565b604082019050919050565b600060208201905081810360008301526124ac81612470565b9050919050565b600081905092915050565b60006124c982611bc0565b6124d381856124b3565b93506124e3818560208601611bdc565b80840191505092915050565b60006124fb82856124be565b915061250782846124be565b91508190509392505050565b7f4e6f206d6f7265204e46547320617661696c61626c6520696e2074686520636f60008201527f6c6c656374696f6e2e0000000000000000000000000000000000000000000000602082015250565b600061256f602983611bcb565b915061257a82612513565b604082019050919050565b6000602082019050818103600083015261259e81612562565b9050919050565b7f4f6e6c79206f6e65204e46542070657220757365720000000000000000000000600082015250565b60006125db601583611bcb565b91506125e6826125a5565b602082019050919050565b6000602082019050818103600083015261260a816125ce565b9050919050565b7f4e6f7420656e6f75676820657468657220746f206d696e7420746865204e4654600082015250565b6000612647602083611bcb565b915061265282612611565b602082019050919050565b600060208201905081810360008301526126768161263a565b9050919050565b60006040820190506126926000830185611d10565b61269f6020830184611e26565b9392505050565b7f4552433732313a207472616e736665722066726f6d20696e636f72726563742060008201527f6f776e6572000000000000000000000000000000000000000000000000000000602082015250565b6000612702602583611bcb565b915061270d826126a6565b604082019050919050565b60006020820190508181036000830152612731816126f5565b9050919050565b7f4552433732313a207472616e7366657220746f20746865207a65726f2061646460008201527f7265737300000000000000000000000000000000000000000000000000000000602082015250565b6000612794602483611bcb565b915061279f82612738565b604082019050919050565b600060208201905081810360008301526127c381612787565b9050919050565b7f4e487b7100000000000000000000000000000000000000000000000000000000600052601160045260246000fd5b600061280482611c7b565b915061280f83611c7b565b925082821015612822576128216127ca565b5b828203905092915050565b600061283882611c7b565b915061284383611c7b565b9250827fffffffffffffffffffffffffffffffffffffffffffffffffffffffffffffffff03821115612878576128776127ca565b5b828201905092915050565b7f4552433732313a20617070726f766520746f2063616c6c657200000000000000600082015250565b60006128b9601983611bcb565b91506128c482612883565b602082019050919050565b600060208201905081810360008301526128e8816128ac565b9050919050565b7f4552433732313a207472616e7366657220746f206e6f6e20455243373231526560008201527f63656976657220696d706c656d656e7465720000000000000000000000000000602082015250565b600061294b603283611bcb565b9150612956826128ef565b604082019050919050565b6000602082019050818103600083015261297a8161293e565b9050919050565b7f45524337323155524953746f726167653a2055524920736574206f66206e6f6e60008201527f6578697374656e7420746f6b656e000000000000000000000000000000000000602082015250565b60006129dd602e83611bcb565b91506129e882612981565b604082019050919050565b60006020820190508181036000830152612a0c816129d0565b9050919050565b600081519050919050565b600082825260208201905092915050565b6000612a3a82612a13565b612a448185612a1e565b9350612a54818560208601611bdc565b612a5d81611c0f565b840191505092915050565b6000608082019050612a7d6000830187611d10565b612a8a6020830186611d10565b612a976040830185611e26565b8181036060830152612aa98184612a2f565b905095945050505050565b600081519050612ac381611b31565b92915050565b600060208284031215612adf57612ade611afb565b5b6000612aed84828501612ab4565b91505092915050565b6000612b0182611c7b565b91507fffffffffffffffffffffffffffffffffffffffffffffffffffffffffffffffff821415612b3457612b336127ca565b5b600182019050919050565b7f4e487b7100000000000000000000000000000000000000000000000000000000600052601260045260246000fd5b6000612b7982611c7b565b9150612b8483611c7b565b925082612b9457612b93612b3f565b5b828204905092915050565b6000612baa82611c7b565b9150612bb583611c7b565b925082612bc557612bc4612b3f565b5b828206905092915050565b7f4e487b7100000000000000000000000000000000000000000000000000000000600052603260045260246000fd5b7f4552433732313a206d696e7420746f20746865207a65726f2061646472657373600082015250565b6000612c35602083611bcb565b9150612c4082612bff565b602082019050919050565b60006020820190508181036000830152612c6481612c28565b9050919050565b7f4552433732313a20746f6b656e20616c7265616479206d696e74656400000000600082015250565b6000612ca1601c83611bcb565b9150612cac82612c6b565b602082019050919050565b60006020820190508181036000830152612cd081612c94565b905091905056fea26469706673582212207ba3786128fe8e3b8ac165bc5ba896320a07890c95e00296cc2dae3ccb5a1a7864736f6c63430008090033",
  "linkReferences": {},
  "deployedLinkReferences": {}
}